{
  "address": "0x507daAFc3826e5521ce9f9AdEB1304Fa05C26c16",
  "abi": [
    {
      "anonymous": false,
      "inputs": [
        {
          "indexed": false,
          "internalType": "contract GnosisSafeProxy",
          "name": "proxy",
          "type": "address"
        }
      ],
      "name": "ProxyCreation",
      "type": "event"
    },
    {
      "inputs": [
        {
          "internalType": "address",
          "name": "masterCopy",
          "type": "address"
        },
        {
          "internalType": "uint256",
          "name": "saltNonce",
          "type": "uint256"
        },
        {
          "internalType": "address",
          "name": "fallbackHandler",
          "type": "address"
        },
        {
          "internalType": "address",
          "name": "to",
          "type": "address"
        },
        {
          "internalType": "uint256",
          "name": "value",
          "type": "uint256"
        },
        {
          "internalType": "bytes",
          "name": "data",
          "type": "bytes"
        },
        {
          "internalType": "enum Enum.Operation",
          "name": "operation",
          "type": "uint8"
        }
      ],
      "name": "createProxyAndExecTransaction",
      "outputs": [
        {
          "internalType": "bool",
          "name": "execTransactionSuccess",
          "type": "bool"
        }
      ],
      "stateMutability": "nonpayable",
      "type": "function"
    },
    {
      "inputs": [],
      "name": "proxyCreationCode",
      "outputs": [
        {
          "internalType": "bytes",
          "name": "",
          "type": "bytes"
        }
      ],
      "stateMutability": "pure",
      "type": "function"
    }
  ],
  "transactionHash": "0x640bf7a404081a78e60b0db10d7bf7be7bf33a5aeb79728e37639ec4e0ecd081",
  "args": [],
  "solcInputHash": "d41ca4e69a1d4487c3ef48bd1bfe8479",
  "bytecode": "0x608060405234801561001057600080fd5b50610a11806100206000396000f3fe608060405234801561001057600080fd5b50600436106100365760003560e01c8063460868ca1461003b57806353e5d935146100ed575b600080fd5b6100d9600480360360e081101561005157600080fd5b6001600160a01b03823581169260208101359260408201358316926060830135169160808101359181019060c0810160a082013564010000000081111561009757600080fd5b8201836020820111156100a957600080fd5b803590602001918460018302840111640100000000831117156100cb57600080fd5b91935091503560ff1661016a565b604080519115158252519081900360200190f35b6100f561085d565b6040805160208082528351818301528351919283929083019185019080838360005b8381101561012f578181015183820152602001610117565b50505050905090810190601f16801561015c5780820380516001836020036101000a031916815260200191505b509250505060405180910390f35b60008060006040518060200161017f90610887565b601f1982820381018352601f9091011660408181526001600160a01b038e16602083810191909152815180840382018152828401909252835191926060019182918501908083835b602083106101e65780518252601f1990920191602091820191016101c7565b51815160209384036101000a600019018019909216911617905285519190930192850191508083835b6020831061022e5780518252601f19909201916020918201910161020f565b6001836020036101000a0380198251168184511680821785525050505050509050019250505060405160208183030381529060405290506000338b60405160200180836001600160a01b0316815260200182815260200192505050604051602081830303815290604052805190602001209050808251836020016000f592506001600160a01b0383166102fe576040805162461bcd60e51b815260206004820152601360248201527218dc99585d194c8818d85b1b0819985a5b1959606a1b604482015290519081900360640190fd5b60408051600180825281830190925260009160208083019080368337019050509050308160008151811061032e57fe5b60200260200101906001600160a01b031690816001600160a01b031681525050836001600160a01b031663b63e800d82600160008f60008060006040518863ffffffff1660e01b81526004018080602001888152602001876001600160a01b0316815260200180602001876001600160a01b03168152602001866001600160a01b03168152602001858152602001846001600160a01b0316815260200183810383528a818151815260200191508051906020019060200280838360005b838110156104035781810151838201526020016103eb565b505050509050018381038252600081526020019950505050505050505050600060405180830381600087803b15801561043b57600080fd5b505af115801561044f573d6000803e3d6000fd5b5050505050826001600160a01b0316636a7612028a8a8a8a8a6000806000806000306001600160a01b031660006001604051602001808481526020018381526020018260ff1660f81b815260010193505050506040516020818303038152906040526040518c63ffffffff1660e01b8152600401808c6001600160a01b031681526020018b8152602001806020018960018111156104e957fe5b8152602001888152602001878152602001868152602001856001600160a01b03168152602001846001600160a01b031681526020018060200183810383528c8c828181526020019250808284376000838201819052601f909101601f191690920185810384528651815286516020918201939188019250908190849084905b83811015610580578181015183820152602001610568565b50505050905090810190601f1680156105ad5780820380516001836020036101000a031916815260200191505b509d5050505050505050505050505050602060405180830381600087803b1580156105d757600080fd5b505af11580156105eb573d6000803e3d6000fd5b505050506040513d602081101561060157600080fd5b505160408051600160248201523060448201819052336064808401919091528351808403909101815260849092018352602082810180516001600160e01b031663e318b52b60e01b1790528351908101919091526000818401819052600160f81b606083015283516041818403018152606183019485905263353b090160e11b9094526001600160a01b038816606583018181526085840183905295995094636a761202948994929384928392839283928392839290919060a581019060c501848152602001888152602001878152602001868152602001856001600160a01b03168152602001846001600160a01b031681526020018060200183810383528b818151815260200191508051906020019080838360005b83811015610730578181015183820152602001610718565b50505050905090810190601f16801561075d5780820380516001836020036101000a031916815260200191505b50838103825284518152845160209182019186019080838360005b83811015610790578181015183820152602001610778565b50505050905090810190601f1680156107bd5780820380516001836020036101000a031916815260200191505b509c50505050505050505050505050602060405180830381600087803b1580156107e657600080fd5b505af11580156107fa573d6000803e3d6000fd5b505050506040513d602081101561081057600080fd5b5050604080516001600160a01b038516815290517fa38789425dbeee0239e16ff2d2567e31720127fbc6430758c1a4efc6aef29f809181900360200190a150505098975050505050505050565b60606040518060200161086f90610887565b601f1982820381018352601f90910116604052905090565b610147806108958339019056fe608060405234801561001057600080fd5b506040516101473803806101478339818101604052602081101561003357600080fd5b50516001600160a01b03811661007a5760405162461bcd60e51b81526004018080602001828103825260228152602001806101256022913960400191505060405180910390fd5b600080546001600160a01b039092166001600160a01b0319909216919091179055607c806100a96000396000f3fe6080604052600080546001600160a01b0316813563530ca43760e11b1415602857808252602082f35b3682833781823684845af490503d82833e806041573d82fd5b503d81f3fea2646970667358221220da2cd0e623f819155fb061e66607d33f394c427e578714beff2288b7d2d49ecb64736f6c63430007060033496e76616c69642073696e676c65746f6e20616464726573732070726f7669646564a2646970667358221220310be3dc68f122848f596618443ac487169e9161cc9fef8f3973be9ce264835f64736f6c63430007060033",
  "devdoc": {
    "kind": "dev",
    "methods": {},
    "version": 1
  },
  "userdoc": {
    "kind": "user",
    "methods": {},
    "version": 1
  },
  "storageLayout": {
    "storage": [],
    "types": null
  }
}